{
  "_format": "hh-sol-artifact-1",
  "contractName": "GameLobby",
  "sourceName": "contracts/GameLobby.sol",
  "abi": [
    {
      "inputs": [
        {
          "internalType": "address payable",
          "name": "_developer",
          "type": "address"
        },
        {
          "internalType": "address payable",
          "name": "_dao",
          "type": "address"
        },
        {
          "internalType": "uint256",
          "name": "_timeWindow",
          "type": "uint256"
        }
      ],
      "stateMutability": "nonpayable",
      "type": "constructor"
    },
    {
      "anonymous": false,
      "inputs": [
        {
          "indexed": false,
          "internalType": "contract Escrow",
          "name": "escrow",
          "type": "address"
        }
      ],
      "name": "EscrowCreated",
      "type": "event"
    },
    {
      "anonymous": false,
      "inputs": [
        {
          "indexed": false,
          "internalType": "contract Escrow",
          "name": "escrow",
          "type": "address"
        },
        {
          "indexed": false,
          "internalType": "uint256",
          "name": "amount",
          "type": "uint256"
        }
      ],
      "name": "EscrowDeposit",
      "type": "event"
    },
    {
      "anonymous": false,
      "inputs": [
        {
          "indexed": false,
          "internalType": "uint256",
          "name": "gameID",
          "type": "uint256"
        },
        {
          "indexed": false,
          "internalType": "address",
          "name": "winner",
          "type": "address"
        }
      ],
      "name": "GameEnd",
      "type": "event"
    },
    {
      "anonymous": false,
      "inputs": [
        {
          "indexed": false,
          "internalType": "uint256",
          "name": "gameID",
          "type": "uint256"
        }
      ],
      "name": "GameStart",
      "type": "event"
    },
    {
      "anonymous": false,
      "inputs": [
        {
          "indexed": false,
          "internalType": "uint256",
          "name": "gameID",
          "type": "uint256"
        }
      ],
      "name": "NewGame",
      "type": "event"
    },
    {
      "anonymous": false,
      "inputs": [
        {
          "indexed": false,
          "internalType": "address",
          "name": "player",
          "type": "address"
        },
        {
          "indexed": false,
          "internalType": "string",
          "name": "playerName",
          "type": "string"
        }
      ],
      "name": "PlayerJoin",
      "type": "event"
    },
    {
      "anonymous": false,
      "inputs": [
        {
          "indexed": false,
          "internalType": "address",
          "name": "player",
          "type": "address"
        },
        {
          "indexed": false,
          "internalType": "uint256",
          "name": "refund",
          "type": "uint256"
        }
      ],
      "name": "Refund",
      "type": "event"
    },
    {
      "anonymous": false,
      "inputs": [
        {
          "indexed": false,
          "internalType": "address",
          "name": "player",
          "type": "address"
        },
        {
          "indexed": false,
          "internalType": "uint256",
          "name": "tokenId",
          "type": "uint256"
        }
      ],
      "name": "VictoryNFTIssued",
      "type": "event"
    },
    {
      "inputs": [
        {
          "internalType": "uint256",
          "name": "",
          "type": "uint256"
        }
      ],
      "name": "approvedTokens",
      "outputs": [
        {
          "internalType": "address",
          "name": "",
          "type": "address"
        }
      ],
      "stateMutability": "view",
      "type": "function"
    },
    {
      "inputs": [],
      "name": "currentGameID",
      "outputs": [
        {
          "internalType": "uint256",
          "name": "",
          "type": "uint256"
        }
      ],
      "stateMutability": "view",
      "type": "function"
    },
    {
      "inputs": [],
      "name": "dao",
      "outputs": [
        {
          "internalType": "address payable",
          "name": "",
          "type": "address"
        }
      ],
      "stateMutability": "view",
      "type": "function"
    },
    {
      "inputs": [
        {
          "internalType": "address payable",
          "name": "_player",
          "type": "address"
        },
        {
          "internalType": "string",
          "name": "_playerName",
          "type": "string"
        },
        {
          "internalType": "uint256",
          "name": "_gameID",
          "type": "uint256"
        },
        {
          "internalType": "uint256",
          "name": "_value",
          "type": "uint256"
        }
      ],
      "name": "deposit",
      "outputs": [],
      "stateMutability": "payable",
      "type": "function"
    },
    {
      "inputs": [],
      "name": "developer",
      "outputs": [
        {
          "internalType": "address payable",
          "name": "",
          "type": "address"
        }
      ],
      "stateMutability": "view",
      "type": "function"
    },
    {
      "inputs": [],
      "name": "escFee",
      "outputs": [
        {
          "internalType": "uint256",
          "name": "",
          "type": "uint256"
        }
      ],
      "stateMutability": "view",
      "type": "function"
    },
    {
      "inputs": [
        {
          "internalType": "bytes32",
          "name": "",
          "type": "bytes32"
        }
      ],
      "name": "escrowBalances",
      "outputs": [
        {
          "internalType": "uint256",
          "name": "",
          "type": "uint256"
        }
      ],
      "stateMutability": "view",
      "type": "function"
    },
    {
      "inputs": [],
      "name": "gameEndTime",
      "outputs": [
        {
          "internalType": "uint256",
          "name": "",
          "type": "uint256"
        }
      ],
      "stateMutability": "view",
      "type": "function"
    },
    {
      "inputs": [],
      "name": "gameID",
      "outputs": [
        {
          "internalType": "uint256",
          "name": "",
          "type": "uint256"
        }
      ],
      "stateMutability": "view",
      "type": "function"
    },
    {
      "inputs": [],
      "name": "gameStartTime",
      "outputs": [
        {
          "internalType": "uint256",
          "name": "",
          "type": "uint256"
        }
      ],
      "stateMutability": "view",
      "type": "function"
    },
    {
      "inputs": [
        {
          "internalType": "uint256",
          "name": "",
          "type": "uint256"
        }
      ],
      "name": "gameStatus",
      "outputs": [
        {
          "internalType": "enum GameLobby.GameStatus",
          "name": "",
          "type": "uint8"
        }
      ],
      "stateMutability": "view",
      "type": "function"
    },
    {
      "inputs": [
        {
          "internalType": "uint256",
          "name": "_gameID",
          "type": "uint256"
        }
      ],
      "name": "getEscrowInformationByGameID",
      "outputs": [
        {
          "internalType": "address",
          "name": "",
          "type": "address"
        },
        {
          "internalType": "uint256",
          "name": "",
          "type": "uint256"
        }
      ],
      "stateMutability": "view",
      "type": "function"
    },
    {
      "inputs": [],
      "name": "maximumPlayers",
      "outputs": [
        {
          "internalType": "uint256",
          "name": "",
          "type": "uint256"
        }
      ],
      "stateMutability": "view",
      "type": "function"
    },
    {
      "inputs": [],
      "name": "minimumPlayers",
      "outputs": [
        {
          "internalType": "uint256",
          "name": "",
          "type": "uint256"
        }
      ],
      "stateMutability": "view",
      "type": "function"
    },
    {
      "inputs": [
        {
          "internalType": "uint256",
          "name": "_gameID",
          "type": "uint256"
        }
      ],
      "name": "newGame",
      "outputs": [],
      "stateMutability": "nonpayable",
      "type": "function"
    },
    {
      "inputs": [
        {
          "internalType": "address",
          "name": "",
          "type": "address"
        }
      ],
      "name": "nftMetadata",
      "outputs": [
        {
          "internalType": "bytes32",
          "name": "",
          "type": "bytes32"
        }
      ],
      "stateMutability": "view",
      "type": "function"
    },
    {
      "inputs": [
        {
          "internalType": "address",
          "name": "",
          "type": "address"
        }
      ],
      "name": "nftOwnership",
      "outputs": [
        {
          "internalType": "bool",
          "name": "",
          "type": "bool"
        }
      ],
      "stateMutability": "view",
      "type": "function"
    },
    {
      "inputs": [
        {
          "internalType": "address payable",
          "name": "_winner",
          "type": "address"
        },
        {
          "internalType": "uint256",
          "name": "_gameID",
          "type": "uint256"
        }
      ],
      "name": "payOutWinner",
      "outputs": [],
      "stateMutability": "nonpayable",
      "type": "function"
    },
    {
      "inputs": [
        {
          "internalType": "uint256",
          "name": "",
          "type": "uint256"
        }
      ],
      "name": "playerAddresses",
      "outputs": [
        {
          "internalType": "address",
          "name": "",
          "type": "address"
        }
      ],
      "stateMutability": "view",
      "type": "function"
    },
    {
      "inputs": [
        {
          "internalType": "address",
          "name": "",
          "type": "address"
        }
      ],
      "name": "playerBalances",
      "outputs": [
        {
          "internalType": "uint256",
          "name": "",
          "type": "uint256"
        }
      ],
      "stateMutability": "view",
      "type": "function"
    },
    {
      "inputs": [],
      "name": "playerCount",
      "outputs": [
        {
          "internalType": "uint256",
          "name": "",
          "type": "uint256"
        }
      ],
      "stateMutability": "view",
      "type": "function"
    },
    {
      "inputs": [
        {
          "internalType": "address",
          "name": "",
          "type": "address"
        }
      ],
      "name": "playerNames",
      "outputs": [
        {
          "internalType": "string",
          "name": "",
          "type": "string"
        }
      ],
      "stateMutability": "view",
      "type": "function"
    },
    {
      "inputs": [
        {
          "internalType": "address",
          "name": "",
          "type": "address"
        }
      ],
      "name": "players",
      "outputs": [
        {
          "internalType": "bool",
          "name": "",
          "type": "bool"
        }
      ],
      "stateMutability": "view",
      "type": "function"
    },
    {
      "inputs": [
        {
          "internalType": "address payable",
          "name": "_player",
          "type": "address"
        }
      ],
      "name": "refund",
      "outputs": [],
      "stateMutability": "nonpayable",
      "type": "function"
    },
    {
      "inputs": [
        {
          "internalType": "uint256",
          "name": "_gameID",
          "type": "uint256"
        }
      ],
      "name": "startGame",
      "outputs": [],
      "stateMutability": "nonpayable",
      "type": "function"
    },
    {
      "inputs": [],
      "name": "timeWindow",
      "outputs": [
        {
          "internalType": "uint256",
          "name": "",
          "type": "uint256"
        }
      ],
      "stateMutability": "view",
      "type": "function"
    },
    {
      "inputs": [],
      "name": "winner",
      "outputs": [
        {
          "internalType": "address payable",
          "name": "",
          "type": "address"
        }
      ],
      "stateMutability": "view",
      "type": "function"
    }
  ],
  "bytecode": "0x6080604052600a600b556002600d556014600e553480156200002057600080fd5b506040516200639d3803806200639d833981810160405281019062000046919062000353565b826000806101000a81548173ffffffffffffffffffffffffffffffffffffffff021916908373ffffffffffffffffffffffffffffffffffffffff16021790555081600160006101000a81548173ffffffffffffffffffffffffffffffffffffffff021916908373ffffffffffffffffffffffffffffffffffffffff16021790555080600981905550600473a0b86991c6218b36c1d19d4a2e9eb0ce3606eb489080600181540180825580915050600190039060005260206000200160009091909190916101000a81548173ffffffffffffffffffffffffffffffffffffffff021916908373ffffffffffffffffffffffffffffffffffffffff16021790555060046e085d4780b73119b644ae5ecd22b3769080600181540180825580915050600190039060005260206000200160009091909190916101000a81548173ffffffffffffffffffffffffffffffffffffffff021916908373ffffffffffffffffffffffffffffffffffffffff160217905550600473dac17f958d2ee523a2206206994597c13d831ec79080600181540180825580915050600190039060005260206000200160009091909190916101000a81548173ffffffffffffffffffffffffffffffffffffffff021916908373ffffffffffffffffffffffffffffffffffffffff1602179055506004738daebade922df735c38c80c7ebd708af50815faa9080600181540180825580915050600190039060005260206000200160009091909190916101000a81548173ffffffffffffffffffffffffffffffffffffffff021916908373ffffffffffffffffffffffffffffffffffffffff160217905550505050620003af565b600080fd5b600073ffffffffffffffffffffffffffffffffffffffff82169050919050565b6000620002e082620002b3565b9050919050565b620002f281620002d3565b8114620002fe57600080fd5b50565b6000815190506200031281620002e7565b92915050565b6000819050919050565b6200032d8162000318565b81146200033957600080fd5b50565b6000815190506200034d8162000322565b92915050565b6000806000606084860312156200036f576200036e620002ae565b5b60006200037f8682870162000301565b9350506020620003928682870162000301565b9250506040620003a5868287016200033c565b9150509250925092565b615fde80620003bf6000396000f3fe608060405260043610620001c45760003560e01c80639b6e82931162000103578063dfbf53ae1162000097578063e5ed1d59116200006d578063e5ed1d5914620006de578063eb21b9d7146200070c578063fa89401a146200072c578063ffc418df146200075a57620001c4565b8063dfbf53ae146200063a578063e0764487146200066a578063e2eb41ff146200069a57620001c4565b8063c7dd4b4f11620000d9578063c7dd4b4f146200057c578063ca4b208b14620005ac578063cde9ef7814620005dc578063d2f343c7146200060a57620001c4565b80639b6e829314620004c5578063b42bdb5a146200050a578063b6e30325146200053857620001c4565b80633b5775de116200017b57806344d9bc5f116200015157806344d9bc5f14620003dd5780634e47368b146200040d578063559793ac146200043d5780637b38314c146200048157620001c4565b80633b5775de14620003255780634162169f146200036957806343b978b3146200039957620001c4565b80630252b99514620001c9578063116e54c514620001f957806315c6aee214620002295780631dafede0146200026d578063302bcc5714620002b157806334239c9c14620002e1575b600080fd5b348015620001d657600080fd5b50620001e16200078a565b604051620001f091906200183b565b60405180910390f35b3480156200020657600080fd5b506200021162000790565b6040516200022091906200183b565b60405180910390f35b3480156200023657600080fd5b506200025560048036038101906200024f91906200189d565b62000796565b60405162000264919062001914565b60405180910390f35b3480156200027a57600080fd5b506200029960048036038101906200029391906200189d565b620007d6565b604051620002a8919062001914565b60405180910390f35b348015620002be57600080fd5b50620002c962000816565b604051620002d891906200183b565b60405180910390f35b348015620002ee57600080fd5b506200030d60048036038101906200030791906200189d565b6200081c565b6040516200031c9190620019b1565b60405180910390f35b3480156200033257600080fd5b506200035160048036038101906200034b919062001a09565b6200083c565b6040516200036091906200183b565b60405180910390f35b3480156200037657600080fd5b506200038162000854565b60405162000390919062001a60565b60405180910390f35b348015620003a657600080fd5b50620003c56004803603810190620003bf919062001aae565b6200087a565b604051620003d4919062001b84565b60405180910390f35b348015620003ea57600080fd5b50620003f562000922565b6040516200040491906200183b565b60405180910390f35b3480156200041a57600080fd5b506200042562000928565b6040516200043491906200183b565b60405180910390f35b3480156200044a57600080fd5b5062000469600480360381019062000463919062001aae565b6200092e565b60405162000478919062001bb9565b60405180910390f35b3480156200048e57600080fd5b50620004ad6004803603810190620004a7919062001aae565b62000946565b604051620004bc91906200183b565b60405180910390f35b348015620004d257600080fd5b50620004f16004803603810190620004eb91906200189d565b6200095e565b6040516200050192919062001bd6565b60405180910390f35b3480156200051757600080fd5b5062000536600480360381019062000530919062001c34565b620009bb565b005b3480156200054557600080fd5b506200056460048036038101906200055e919062001aae565b62000d39565b60405162000573919062001c98565b60405180910390f35b3480156200058957600080fd5b506200059462000d59565b604051620005a391906200183b565b60405180910390f35b348015620005b957600080fd5b50620005c462000d5f565b604051620005d3919062001a60565b60405180910390f35b348015620005e957600080fd5b506200060860048036038101906200060291906200189d565b62000d83565b005b3480156200061757600080fd5b506200062262000ed8565b6040516200063191906200183b565b60405180910390f35b3480156200064757600080fd5b506200065262000ede565b60405162000661919062001a60565b60405180910390f35b3480156200067757600080fd5b506200068262000f04565b6040516200069191906200183b565b60405180910390f35b348015620006a757600080fd5b50620006c66004803603810190620006c0919062001aae565b62000f0a565b604051620006d5919062001c98565b60405180910390f35b348015620006eb57600080fd5b506200070a60048036038101906200070491906200189d565b62000f2a565b005b6200072a600480360381019062000724919062001e06565b62001026565b005b3480156200073957600080fd5b5062000758600480360381019062000752919062001e97565b620014a1565b005b3480156200076757600080fd5b50620007726200175c565b6040516200078191906200183b565b60405180910390f35b60075481565b600e5481565b60038181548110620007a757600080fd5b906000526020600020016000915054906101000a900473ffffffffffffffffffffffffffffffffffffffff1681565b60048181548110620007e757600080fd5b906000526020600020016000915054906101000a900473ffffffffffffffffffffffffffffffffffffffff1681565b600f5481565b60156020528060005260406000206000915054906101000a900460ff1681565b60136020528060005260406000206000915090505481565b600160009054906101000a900473ffffffffffffffffffffffffffffffffffffffff1681565b600660205280600052604060002060009150905080546200089b9062001ef8565b80601f0160208091040260200160405190810160405280929190818152602001828054620008c99062001ef8565b80156200091a5780601f10620008ee576101008083540402835291602001916200091a565b820191906000526020600020905b815481529060010190602001808311620008fc57829003601f168201915b505050505081565b60085481565b600b5481565b60116020528060005260406000206000915090505481565b60056020528060005260406000206000915090505481565b60008060006012600085815260200190815260200160002060009054906101000a900473ffffffffffffffffffffffffffffffffffffffff16905080601360008660001b8152602001908152602001600020549250925050915091565b81600c60006101000a81548173ffffffffffffffffffffffffffffffffffffffff021916908373ffffffffffffffffffffffffffffffffffffffff16021790555060026015600083815260200190815260200160002060006101000a81548160ff0219169083600281111562000a365762000a3562001931565b5b02179055507f9718dbe118eb2ae68ab354f05d6bc7e40cfbb993a521bee9314324bec4dad661818360405162000a6e92919062001f99565b60405180910390a1600a54811462000abd576040517f08c379a000000000000000000000000000000000000000000000000000000000815260040162000ab49062002016565b60405180910390fd5b600073ffffffffffffffffffffffffffffffffffffffff16600c60009054906101000a900473ffffffffffffffffffffffffffffffffffffffff1673ffffffffffffffffffffffffffffffffffffffff16141562000b52576040517f08c379a000000000000000000000000000000000000000000000000000000000815260040162000b499062002088565b60405180910390fd5b6000601360008360405160200162000b6b9190620020cf565b6040516020818303038152906040528051906020012081526020019081526020016000205490506000600a60098362000ba591906200211b565b62000bb19190620021ab565b90506000606460058462000bc691906200211b565b62000bd29190620021ab565b90506000606460058562000be791906200211b565b62000bf39190620021ab565b9050600c60009054906101000a900473ffffffffffffffffffffffffffffffffffffffff1673ffffffffffffffffffffffffffffffffffffffff166108fc849081150290604051600060405180830381858888f1935050505015801562000c5e573d6000803e3d6000fd5b5060008054906101000a900473ffffffffffffffffffffffffffffffffffffffff1673ffffffffffffffffffffffffffffffffffffffff166108fc839081150290604051600060405180830381858888f1935050505015801562000cc6573d6000803e3d6000fd5b50600160009054906101000a900473ffffffffffffffffffffffffffffffffffffffff1673ffffffffffffffffffffffffffffffffffffffff166108fc829081150290604051600060405180830381858888f1935050505015801562000d30573d6000803e3d6000fd5b50505050505050565b60106020528060005260406000206000915054906101000a900460ff1681565b600a5481565b60008054906101000a900473ffffffffffffffffffffffffffffffffffffffff1681565b806014541462000dca576040517f08c379a000000000000000000000000000000000000000000000000000000000815260040162000dc19062002259565b60405180910390fd5b60008160405162000ddb9062001762565b62000de791906200183b565b604051809103906000f08015801562000e04573d6000803e3d6000fd5b509050806012600084815260200190815260200160002060006101000a81548173ffffffffffffffffffffffffffffffffffffffff021916908373ffffffffffffffffffffffffffffffffffffffff160217905550816014819055507fa0b7f6f22bb4f69adc52dd16ffe2a964ab8b577be274247fa9a1547b03ce3e5560145460405162000e9391906200183b565b60405180910390a17fdc172423e65e4eb718110c42ad3b66ac4b0a613e4d07bfb55f2477f2d1bf34eb8160405162000ecc9190620022a0565b60405180910390a15050565b60095481565b600c60009054906101000a900473ffffffffffffffffffffffffffffffffffffffff1681565b600d5481565b60026020528060005260406000206000915054906101000a900460ff1681565b600d54600f541015801562000f435750600e54600f5411155b62000f85576040517f08c379a000000000000000000000000000000000000000000000000000000000815260040162000f7c9062002359565b60405180910390fd5b80600a819055504260078190555060095460075462000fa591906200237b565b60088190555060016015600083815260200190815260200160002060006101000a81548160ff0219169083600281111562000fe55762000fe462001931565b5b02179055507fb5e8a4470f7bcac7f2c0f3e23471bd7016a9f6f049884cd27dfa8960f361287b816040516200101b91906200183b565b60405180910390a150565b6000849050600082905060008590508673ffffffffffffffffffffffffffffffffffffffff163373ffffffffffffffffffffffffffffffffffffffff1614620010a6576040517f08c379a00000000000000000000000000000000000000000000000000000000081526004016200109d906200244e565b60405180910390fd5b60001515600260008573ffffffffffffffffffffffffffffffffffffffff1673ffffffffffffffffffffffffffffffffffffffff16815260200190815260200160002060009054906101000a900460ff161515146200113c576040517f08c379a00000000000000000000000000000000000000000000000000000000081526004016200113390620024e6565b60405180910390fd5b6000600281111562001153576200115262001931565b5b6015600087815260200190815260200160002060009054906101000a900460ff16600281111562001189576200118862001931565b5b14620011cc576040517f08c379a0000000000000000000000000000000000000000000000000000000008152600401620011c3906200257e565b60405180910390fd5b6000841162001212576040517f08c379a0000000000000000000000000000000000000000000000000000000008152600401620012099062002616565b60405180910390fd5b83600560008573ffffffffffffffffffffffffffffffffffffffff1673ffffffffffffffffffffffffffffffffffffffff168152602001908152602001600020819055506001600260008573ffffffffffffffffffffffffffffffffffffffff1673ffffffffffffffffffffffffffffffffffffffff16815260200190815260200160002060006101000a81548160ff02191690831515021790555085600660008973ffffffffffffffffffffffffffffffffffffffff1673ffffffffffffffffffffffffffffffffffffffff16815260200190815260200160002090805190602001906200130392919062001770565b507fcb35bb67388b900e22ff0a832666d38aace168e77f822f837358c5004a7ab7cb83826040516200133792919062002638565b60405180910390a1600f600081548092919062001354906200266c565b91905055506012600086815260200190815260200160002060009054906101000a900473ffffffffffffffffffffffffffffffffffffffff1673ffffffffffffffffffffffffffffffffffffffff1663a52c101e836040518263ffffffff1660e01b8152600401620013c791906200183b565b600060405180830381600087803b158015620013e257600080fd5b505af1158015620013f7573d6000803e3d6000fd5b5050505081601360008760001b815260200190815260200160002060008282546200142391906200237b565b925050819055507fc9030f4276aa9a54d2f20e78ab66876119c07f7bc8bff21fb4762855efdecd2f6012600087815260200190815260200160002060009054906101000a900473ffffffffffffffffffffffffffffffffffffffff168360405162001490929190620026ba565b60405180910390a150505050505050565b600560008273ffffffffffffffffffffffffffffffffffffffff1673ffffffffffffffffffffffffffffffffffffffff168152602001908152602001600020546013600060145460001b81526020019081526020016000205410156200153e576040517f08c379a000000000000000000000000000000000000000000000000000000000815260040162001535906200275d565b60405180910390fd5b8073ffffffffffffffffffffffffffffffffffffffff166108fc600560008473ffffffffffffffffffffffffffffffffffffffff1673ffffffffffffffffffffffffffffffffffffffff168152602001908152602001600020549081150290604051600060405180830381858888f19350505050158015620015c4573d6000803e3d6000fd5b50600560008273ffffffffffffffffffffffffffffffffffffffff1673ffffffffffffffffffffffffffffffffffffffff168152602001908152602001600020546013600060145460001b815260200190815260200160002060008282546200162e91906200277f565b925050819055506000600560008373ffffffffffffffffffffffffffffffffffffffff1673ffffffffffffffffffffffffffffffffffffffff1681526020019081526020016000208190555060405180602001604052806000815250600660008373ffffffffffffffffffffffffffffffffffffffff1673ffffffffffffffffffffffffffffffffffffffff1681526020019081526020016000209080519060200190620016de92919062001770565b507fbb28353e4598c3b9199101a66e0989549b659a59a54d2c27fbb183f1932c8e6d81600560008473ffffffffffffffffffffffffffffffffffffffff1673ffffffffffffffffffffffffffffffffffffffff1681526020019081526020016000205460405162001751929190620027ba565b60405180910390a150565b60145481565b6137c180620027e883390190565b8280546200177e9062001ef8565b90600052602060002090601f016020900481019282620017a25760008555620017ee565b82601f10620017bd57805160ff1916838001178555620017ee565b82800160010185558215620017ee579182015b82811115620017ed578251825591602001919060010190620017d0565b5b509050620017fd919062001801565b5090565b5b808211156200181c57600081600090555060010162001802565b5090565b6000819050919050565b620018358162001820565b82525050565b60006020820190506200185260008301846200182a565b92915050565b6000604051905090565b600080fd5b600080fd5b620018778162001820565b81146200188357600080fd5b50565b60008135905062001897816200186c565b92915050565b600060208284031215620018b657620018b562001862565b5b6000620018c68482850162001886565b91505092915050565b600073ffffffffffffffffffffffffffffffffffffffff82169050919050565b6000620018fc82620018cf565b9050919050565b6200190e81620018ef565b82525050565b60006020820190506200192b600083018462001903565b92915050565b7f4e487b7100000000000000000000000000000000000000000000000000000000600052602160045260246000fd5b6003811062001974576200197362001931565b5b50565b6000819050620019878262001960565b919050565b6000620019998262001977565b9050919050565b620019ab816200198c565b82525050565b6000602082019050620019c86000830184620019a0565b92915050565b6000819050919050565b620019e381620019ce565b8114620019ef57600080fd5b50565b60008135905062001a0381620019d8565b92915050565b60006020828403121562001a225762001a2162001862565b5b600062001a3284828501620019f2565b91505092915050565b600062001a4882620018cf565b9050919050565b62001a5a8162001a3b565b82525050565b600060208201905062001a77600083018462001a4f565b92915050565b62001a8881620018ef565b811462001a9457600080fd5b50565b60008135905062001aa88162001a7d565b92915050565b60006020828403121562001ac75762001ac662001862565b5b600062001ad78482850162001a97565b91505092915050565b600081519050919050565b600082825260208201905092915050565b60005b8381101562001b1c57808201518184015260208101905062001aff565b8381111562001b2c576000848401525b50505050565b6000601f19601f8301169050919050565b600062001b508262001ae0565b62001b5c818562001aeb565b935062001b6e81856020860162001afc565b62001b798162001b32565b840191505092915050565b6000602082019050818103600083015262001ba0818462001b43565b905092915050565b62001bb381620019ce565b82525050565b600060208201905062001bd0600083018462001ba8565b92915050565b600060408201905062001bed600083018562001903565b62001bfc60208301846200182a565b9392505050565b62001c0e8162001a3b565b811462001c1a57600080fd5b50565b60008135905062001c2e8162001c03565b92915050565b6000806040838503121562001c4e5762001c4d62001862565b5b600062001c5e8582860162001c1d565b925050602062001c718582860162001886565b9150509250929050565b60008115159050919050565b62001c928162001c7b565b82525050565b600060208201905062001caf600083018462001c87565b92915050565b600080fd5b600080fd5b7f4e487b7100000000000000000000000000000000000000000000000000000000600052604160045260246000fd5b62001cf98262001b32565b810181811067ffffffffffffffff8211171562001d1b5762001d1a62001cbf565b5b80604052505050565b600062001d3062001858565b905062001d3e828262001cee565b919050565b600067ffffffffffffffff82111562001d615762001d6062001cbf565b5b62001d6c8262001b32565b9050602081019050919050565b82818337600083830152505050565b600062001d9f62001d998462001d43565b62001d24565b90508281526020810184848401111562001dbe5762001dbd62001cba565b5b62001dcb84828562001d79565b509392505050565b600082601f83011262001deb5762001dea62001cb5565b5b813562001dfd84826020860162001d88565b91505092915050565b6000806000806080858703121562001e235762001e2262001862565b5b600062001e338782880162001c1d565b945050602085013567ffffffffffffffff81111562001e575762001e5662001867565b5b62001e658782880162001dd3565b935050604062001e788782880162001886565b925050606062001e8b8782880162001886565b91505092959194509250565b60006020828403121562001eb05762001eaf62001862565b5b600062001ec08482850162001c1d565b91505092915050565b7f4e487b7100000000000000000000000000000000000000000000000000000000600052602260045260246000fd5b6000600282049050600182168062001f1157607f821691505b6020821081141562001f285762001f2762001ec9565b5b50919050565b6000819050919050565b600062001f5962001f5362001f4d84620018cf565b62001f2e565b620018cf565b9050919050565b600062001f6d8262001f38565b9050919050565b600062001f818262001f60565b9050919050565b62001f938162001f74565b82525050565b600060408201905062001fb060008301856200182a565b62001fbf602083018462001f88565b9392505050565b7f496e76616c69642067616d652049442e00000000000000000000000000000000600082015250565b600062001ffe60108362001aeb565b91506200200b8262001fc6565b602082019050919050565b60006020820190508181036000830152620020318162001fef565b9050919050565b7f5468657265206973206e6f2077696e6e657220746f20706179206f75742e0000600082015250565b600062002070601e8362001aeb565b91506200207d8262002038565b602082019050919050565b60006020820190508181036000830152620020a38162002061565b9050919050565b6000819050919050565b620020c9620020c38262001820565b620020aa565b82525050565b6000620020dd8284620020b4565b60208201915081905092915050565b7f4e487b7100000000000000000000000000000000000000000000000000000000600052601160045260246000fd5b6000620021288262001820565b9150620021358362001820565b9250817fffffffffffffffffffffffffffffffffffffffffffffffffffffffffffffffff0483118215151615620021715762002170620020ec565b5b828202905092915050565b7f4e487b7100000000000000000000000000000000000000000000000000000000600052601260045260246000fd5b6000620021b88262001820565b9150620021c58362001820565b925082620021d857620021d76200217c565b5b828204905092915050565b7f412067616d652077697468207468617420494420616c7265616479206578697360008201527f74732e0000000000000000000000000000000000000000000000000000000000602082015250565b60006200224160238362001aeb565b91506200224e82620021e3565b604082019050919050565b60006020820190508181036000830152620022748162002232565b9050919050565b6000620022888262001f60565b9050919050565b6200229a816200227b565b82525050565b6000602082019050620022b760008301846200228f565b92915050565b7f4e6f7420656e6f75676820706c617965727320746f207374617274207468652060008201527f67616d652e204d696e696d756d203220616e64206d6178696d756d203230207060208201527f6c6179657273206172652072657175697265642e000000000000000000000000604082015250565b60006200234160548362001aeb565b91506200234e82620022bd565b606082019050919050565b60006020820190508181036000830152620023748162002332565b9050919050565b6000620023888262001820565b9150620023958362001820565b9250827fffffffffffffffffffffffffffffffffffffffffffffffffffffffffffffffff03821115620023cd57620023cc620020ec565b5b828201905092915050565b7f4f6e6c792074686520706c61796572207468656d73656c7665732063616e206d60008201527f616b652061206465706f7369742e000000000000000000000000000000000000602082015250565b600062002436602e8362001aeb565b91506200244382620023d8565b604082019050919050565b60006020820190508181036000830152620024698162002427565b9050919050565b7f506c617965722068617320616c7265616479206d6164652061206465706f736960008201527f742e000000000000000000000000000000000000000000000000000000000000602082015250565b6000620024ce60228362001aeb565b9150620024db8262002470565b604082019050919050565b600060208201905081810360008301526200250181620024bf565b9050919050565b7f47616d652068617320616c726561647920737461727465642c206465706f736960008201527f74206e6f7420616c6c6f7765642e000000000000000000000000000000000000602082015250565b600062002566602e8362001aeb565b9150620025738262002508565b604082019050919050565b60006020820190508181036000830152620025998162002557565b9050919050565b7f4465706f7369742076616c7565206d757374206265206772656174657220746860008201527f616e20302e000000000000000000000000000000000000000000000000000000602082015250565b6000620025fe60258362001aeb565b91506200260b82620025a0565b604082019050919050565b600060208201905081810360008301526200263181620025ef565b9050919050565b60006040820190506200264f600083018562001f88565b818103602083015262002663818462001b43565b90509392505050565b6000620026798262001820565b91507fffffffffffffffffffffffffffffffffffffffffffffffffffffffffffffffff821415620026af57620026ae620020ec565b5b600182019050919050565b6000604082019050620026d160008301856200228f565b620026e060208301846200182a565b9392505050565b7f4e6f7420656e6f7567682066756e647320696e20657363726f7720746f20726560008201527f66756e6420706c617965722e0000000000000000000000000000000000000000602082015250565b600062002745602c8362001aeb565b91506200275282620026e7565b604082019050919050565b60006020820190508181036000830152620027788162002736565b9050919050565b60006200278c8262001820565b9150620027998362001820565b925082821015620027af57620027ae620020ec565b5b828203905092915050565b6000604082019050620027d1600083018562001f88565b620027e060208301846200182a565b939250505056fe6080604052600060055560006006556000600755604051620037c1380380620037c18339818101604052810190620000389190620000df565b600160008190555033600160006101000a81548173ffffffffffffffffffffffffffffffffffffffff021916908373ffffffffffffffffffffffffffffffffffffffff16021790555060006002819055506000600381905550806008819055505062000111565b600080fd5b6000819050919050565b620000b981620000a4565b8114620000c557600080fd5b50565b600081519050620000d981620000ae565b92915050565b600060208284031215620000f857620000f76200009f565b5b60006200010884828501620000c8565b91505092915050565b6136a080620001216000396000f3fe6080604052600436106101355760003560e01c8063618f0ea7116100ab578063bc045df81161006f578063bc045df81461045e578063c7dd4b4f1461049b578063c86d9da2146104c6578063c9958c4d146104f1578063d62a48871461051c578063f7c8d2211461055957610135565b8063618f0ea7146103605780636352211e1461038b5780636754cc28146103c85780637216f12314610405578063a52c101e1461044257610135565b80633a178d99116100fd5780633a178d99146102475780633d54eebb146102845780634028a0f1146102b4578063410d59cc146102df5780634e47368b1461030a57806350f18cb71461033557610135565b806304ef07811461013a57806310dd7a4c1461017757806318059aad146101a25780632799276d146101df5780633129e7731461020a575b600080fd5b34801561014657600080fd5b50610161600480360381019061015c9190612318565b610596565b60405161016e9190612367565b60405180910390f35b34801561018357600080fd5b5061018c610932565b6040516101999190612678565b60405180910390f35b3480156101ae57600080fd5b506101c960048036038101906101c4919061269a565b610b9c565b6040516101d69190612367565b60405180910390f35b3480156101eb57600080fd5b506101f4610dc9565b60405161020191906126d6565b60405180910390f35b34801561021657600080fd5b50610231600480360381019061022c919061269a565b610dcf565b60405161023e91906127b6565b60405180910390f35b34801561025357600080fd5b5061026e6004803603810190610269919061269a565b610fca565b60405161027b9190612820565b60405180910390f35b61029e600480360381019061029991906128a0565b610fea565b6040516102ab9190612367565b60405180910390f35b3480156102c057600080fd5b506102c9611457565b6040516102d691906126d6565b60405180910390f35b3480156102eb57600080fd5b506102f461145d565b6040516103019190612678565b60405180910390f35b34801561031657600080fd5b5061031f6116e5565b60405161032c91906126d6565b60405180910390f35b34801561034157600080fd5b5061034a6116eb565b60405161035791906126d6565b60405180910390f35b34801561036c57600080fd5b506103756116f1565b60405161038291906128fc565b60405180910390f35b34801561039757600080fd5b506103b260048036038101906103ad919061269a565b611717565b6040516103bf91906128fc565b60405180910390f35b3480156103d457600080fd5b506103ef60048036038101906103ea9190612943565b61174a565b6040516103fc9190612367565b60405180910390f35b34801561041157600080fd5b5061042c6004803603810190610427919061269a565b611779565b6040516104399190612367565b60405180910390f35b61045c6004803603810190610457919061269a565b6119af565b005b34801561046a57600080fd5b5061048560048036038101906104809190612983565b6119cb565b6040516104929190612367565b60405180910390f35b3480156104a757600080fd5b506104b0611cc9565b6040516104bd91906126d6565b60405180910390f35b3480156104d257600080fd5b506104db611ccf565b6040516104e891906126d6565b60405180910390f35b3480156104fd57600080fd5b50610506611cd5565b60405161051391906126d6565b60405180910390f35b34801561052857600080fd5b50610543600480360381019061053e919061269a565b611cdb565b6040516105509190612367565b60405180910390f35b34801561056557600080fd5b50610580600480360381019061057b9190612943565b611ec8565b60405161058d9190612367565b60405180910390f35b6000600c600084815260200190815260200160002060009054906101000a900473ffffffffffffffffffffffffffffffffffffffff1673ffffffffffffffffffffffffffffffffffffffff163373ffffffffffffffffffffffffffffffffffffffff1614610639576040517f08c379a000000000000000000000000000000000000000000000000000000000815260040161063090612a20565b60405180910390fd5b6009600084815260200190815260200160002060050160159054906101000a900460ff1661069c576040517f08c379a000000000000000000000000000000000000000000000000000000000815260040161069390612a8c565b60405180910390fd5b600560068111156106b0576106af612497565b5b6009600085815260200190815260200160002060050160149054906101000a900460ff1660068111156106e6576106e5612497565b5b1415610727576040517f08c379a000000000000000000000000000000000000000000000000000000000815260040161071e90612b1e565b60405180910390fd5b8115610897576000606460045460096000878152602001908152602001600020600201546107559190612b6d565b61075f9190612bf6565b90506107c26009600086815260200190815260200160002060050160009054906101000a900473ffffffffffffffffffffffffffffffffffffffff168260096000888152602001908152602001600020600201546107bd9190612c27565b61202a565b506009600085815260200190815260200160002060020154600260008282546107eb9190612c27565b9250508190555080600360008282546108049190612c5b565b9250508190555060016009600086815260200190815260200160002060050160166101000a81548160ff02191690831515021790555060036009600086815260200190815260200160002060050160146101000a81548160ff0219169083600681111561087457610873612497565b5b02179055506006600081548092919061088c90612cb1565b9190505550506108d7565b60046009600085815260200190815260200160002060050160146101000a81548160ff021916908360068111156108d1576108d0612497565b5b02179055505b3373ffffffffffffffffffffffffffffffffffffffff167f23ad0062ad47da0f27f5c07751751e4b60afc16bf6fe03a24266a01ec4897931846004604051610920929190612d55565b60405180910390a26001905092915050565b6060600a60003373ffffffffffffffffffffffffffffffffffffffff1673ffffffffffffffffffffffffffffffffffffffff168152602001908152602001600020805480602002602001604051908101604052809291908181526020016000905b82821015610b93578382906000526020600020906006020160405180610120016040529081600082015481526020016001820180546109d190612dc0565b80601f01602080910402602001604051908101604052809291908181526020018280546109fd90612dc0565b8015610a4a5780601f10610a1f57610100808354040283529160200191610a4a565b820191906000526020600020905b815481529060010190602001808311610a2d57829003601f168201915b5050505050815260200160028201548152602001600382015481526020016004820160009054906101000a900473ffffffffffffffffffffffffffffffffffffffff1673ffffffffffffffffffffffffffffffffffffffff1673ffffffffffffffffffffffffffffffffffffffff1681526020016005820160009054906101000a900473ffffffffffffffffffffffffffffffffffffffff1673ffffffffffffffffffffffffffffffffffffffff1673ffffffffffffffffffffffffffffffffffffffff1681526020016005820160149054906101000a900460ff166006811115610b3857610b37612497565b5b6006811115610b4a57610b49612497565b5b81526020016005820160159054906101000a900460ff161515151581526020016005820160169054906101000a900460ff16151515158152505081526020019060010190610993565b50505050905090565b6000600160009054906101000a900473ffffffffffffffffffffffffffffffffffffffff1673ffffffffffffffffffffffffffffffffffffffff163373ffffffffffffffffffffffffffffffffffffffff1614610c2e576040517f08c379a0000000000000000000000000000000000000000000000000000000008152600401610c2590612e3e565b60405180910390fd5b6009600083815260200190815260200160002060050160169054906101000a900460ff1615610c92576040517f08c379a0000000000000000000000000000000000000000000000000000000008152600401610c8990612eaa565b60405180910390fd5b610ce86009600084815260200190815260200160002060040160009054906101000a900473ffffffffffffffffffffffffffffffffffffffff16600960008581526020019081526020016000206002015461202a565b50600960008381526020019081526020016000206002015460026000828254610d119190612c27565b9250508190555060056009600084815260200190815260200160002060050160146101000a81548160ff02191690836006811115610d5257610d51612497565b5b021790555060076000815480929190610d6a90612cb1565b91905055503373ffffffffffffffffffffffffffffffffffffffff167f23ad0062ad47da0f27f5c07751751e4b60afc16bf6fe03a24266a01ec4897931836005604051610db8929190612f16565b60405180910390a260019050919050565b60055481565b610dd76120e2565b600960008381526020019081526020016000206040518061012001604052908160008201548152602001600182018054610e1090612dc0565b80601f0160208091040260200160405190810160405280929190818152602001828054610e3c90612dc0565b8015610e895780601f10610e5e57610100808354040283529160200191610e89565b820191906000526020600020905b815481529060010190602001808311610e6c57829003601f168201915b5050505050815260200160028201548152602001600382015481526020016004820160009054906101000a900473ffffffffffffffffffffffffffffffffffffffff1673ffffffffffffffffffffffffffffffffffffffff1673ffffffffffffffffffffffffffffffffffffffff1681526020016005820160009054906101000a900473ffffffffffffffffffffffffffffffffffffffff1673ffffffffffffffffffffffffffffffffffffffff1673ffffffffffffffffffffffffffffffffffffffff1681526020016005820160149054906101000a900460ff166006811115610f7757610f76612497565b5b6006811115610f8957610f88612497565b5b81526020016005820160159054906101000a900460ff161515151581526020016005820160169054906101000a900460ff1615151515815250509050919050565b600d6020528060005260406000206000915054906101000a900460ff1681565b6000808383905011611031576040517f08c379a000000000000000000000000000000000000000000000000000000000815260040161102890612f9e565b60405180910390fd5b60003411611074576040517f08c379a000000000000000000000000000000000000000000000000000000000815260040161106b9061300a565b60405180910390fd5b60006005600081548092919061108990612cb1565b919050559050600060096000838152602001908152602001600020905081816000018190555084848260010191906110c2929190612170565b50348160020181905550428160030181905550338160040160006101000a81548173ffffffffffffffffffffffffffffffffffffffff021916908373ffffffffffffffffffffffffffffffffffffffff16021790555060008160050160146101000a81548160ff021916908360068111156111405761113f612497565b5b0217905550600a60003373ffffffffffffffffffffffffffffffffffffffff1673ffffffffffffffffffffffffffffffffffffffff1681526020019081526020016000208190806001815401808255809150506001900390600052602060002090600602016000909190919091506000820154816000015560018201816001019080546111cc90612dc0565b6111d79291906121f6565b5060028201548160020155600382015481600301556004820160009054906101000a900473ffffffffffffffffffffffffffffffffffffffff168160040160006101000a81548173ffffffffffffffffffffffffffffffffffffffff021916908373ffffffffffffffffffffffffffffffffffffffff1602179055506005820160009054906101000a900473ffffffffffffffffffffffffffffffffffffffff168160050160006101000a81548173ffffffffffffffffffffffffffffffffffffffff021916908373ffffffffffffffffffffffffffffffffffffffff1602179055506005820160149054906101000a900460ff168160050160146101000a81548160ff021916908360068111156112f2576112f1612497565b5b02179055506005820160159054906101000a900460ff168160050160156101000a81548160ff0219169083151502179055506005820160169054906101000a900460ff168160050160166101000a81548160ff021916908315150217905550505033600c600084815260200190815260200160002060006101000a81548173ffffffffffffffffffffffffffffffffffffffff021916908373ffffffffffffffffffffffffffffffffffffffff1602179055506001600d600084815260200190815260200160002060006101000a81548160ff021916908360018111156113dc576113db612497565b5b021790555034600260008282546113f39190612c5b565b925050819055503373ffffffffffffffffffffffffffffffffffffffff167f23ad0062ad47da0f27f5c07751751e4b60afc16bf6fe03a24266a01ec4897931836000604051611443929190613076565b60405180910390a260019250505092915050565b60065481565b606060055467ffffffffffffffff81111561147b5761147a6130b2565b5b6040519080825280602002602001820160405280156114b457816020015b6114a16120e2565b8152602001906001900390816114995790505b50905060005b6005548110156116e1576009600082815260200190815260200160002060405180610120016040529081600082015481526020016001820180546114fd90612dc0565b80601f016020809104026020016040519081016040528092919081815260200182805461152990612dc0565b80156115765780601f1061154b57610100808354040283529160200191611576565b820191906000526020600020905b81548152906001019060200180831161155957829003601f168201915b5050505050815260200160028201548152602001600382015481526020016004820160009054906101000a900473ffffffffffffffffffffffffffffffffffffffff1673ffffffffffffffffffffffffffffffffffffffff1673ffffffffffffffffffffffffffffffffffffffff1681526020016005820160009054906101000a900473ffffffffffffffffffffffffffffffffffffffff1673ffffffffffffffffffffffffffffffffffffffff1673ffffffffffffffffffffffffffffffffffffffff1681526020016005820160149054906101000a900460ff16600681111561166457611663612497565b5b600681111561167657611675612497565b5b81526020016005820160159054906101000a900460ff161515151581526020016005820160169054906101000a900460ff1615151515815250508282815181106116c3576116c26130e1565b5b602002602001018190525080806116d990612cb1565b9150506114ba565b5090565b60045481565b60035481565b600160009054906101000a900473ffffffffffffffffffffffffffffffffffffffff1681565b600c6020528060005260406000206000915054906101000a900473ffffffffffffffffffffffffffffffffffffffff1681565b600b6020528160005260406000206020528060005260406000206000915091509054906101000a900460ff1681565b60006009600083815260200190815260200160002060050160009054906101000a900473ffffffffffffffffffffffffffffffffffffffff1673ffffffffffffffffffffffffffffffffffffffff163373ffffffffffffffffffffffffffffffffffffffff161461181f576040517f08c379a00000000000000000000000000000000000000000000000000000000081526004016118169061315c565b60405180910390fd5b6009600083815260200190815260200160002060050160159054906101000a900460ff1615611883576040517f08c379a000000000000000000000000000000000000000000000000000000000815260040161187a90612eaa565b60405180910390fd5b6009600083815260200190815260200160002060050160169054906101000a900460ff16156118e7576040517f08c379a00000000000000000000000000000000000000000000000000000000081526004016118de906131c8565b60405180910390fd5b60016009600084815260200190815260200160002060050160156101000a81548160ff02191690831515021790555060026009600084815260200190815260200160002060050160146101000a81548160ff021916908360068111156119505761194f612497565b5b02179055503373ffffffffffffffffffffffffffffffffffffffff167f23ad0062ad47da0f27f5c07751751e4b60afc16bf6fe03a24266a01ec489793183600260405161199e929190613234565b60405180910390a260019050919050565b80600260008282546119c19190612c5b565b9250508190555050565b6000600c600084815260200190815260200160002060009054906101000a900473ffffffffffffffffffffffffffffffffffffffff1673ffffffffffffffffffffffffffffffffffffffff163373ffffffffffffffffffffffffffffffffffffffff1614611a6e576040517f08c379a0000000000000000000000000000000000000000000000000000000008152600401611a6590612a20565b60405180910390fd5b600180811115611a8157611a80612497565b5b600d600085815260200190815260200160002060009054906101000a900460ff166001811115611ab457611ab3612497565b5b14611af4576040517f08c379a0000000000000000000000000000000000000000000000000000000008152600401611aeb906132bc565b60405180910390fd5b600b60008373ffffffffffffffffffffffffffffffffffffffff1673ffffffffffffffffffffffffffffffffffffffff168152602001908152602001600020600084815260200190815260200160002060009054906101000a900460ff16611b91576040517f08c379a0000000000000000000000000000000000000000000000000000000008152600401611b8890613328565b60405180910390fd5b60006001811115611ba557611ba4612497565b5b600d600085815260200190815260200160002060009054906101000a900460ff166001811115611bd857611bd7612497565b5b505060016009600085815260200190815260200160002060050160146101000a81548160ff02191690836006811115611c1457611c13612497565b5b0217905550816009600085815260200190815260200160002060050160006101000a81548173ffffffffffffffffffffffffffffffffffffffff021916908373ffffffffffffffffffffffffffffffffffffffff1602179055503373ffffffffffffffffffffffffffffffffffffffff167f23ad0062ad47da0f27f5c07751751e4b60afc16bf6fe03a24266a01ec4897931846001604051611cb7929190613394565b60405180910390a26001905092915050565b60085481565b60025481565b60075481565b6000600c600083815260200190815260200160002060009054906101000a900473ffffffffffffffffffffffffffffffffffffffff1673ffffffffffffffffffffffffffffffffffffffff163373ffffffffffffffffffffffffffffffffffffffff161415611d7f576040517f08c379a0000000000000000000000000000000000000000000000000000000008152600401611d769061341c565b60405180910390fd5b600180811115611d9257611d91612497565b5b600d600084815260200190815260200160002060009054906101000a900460ff166001811115611dc557611dc4612497565b5b14611e05576040517f08c379a0000000000000000000000000000000000000000000000000000000008152600401611dfc906132bc565b60405180910390fd5b6001600b60003373ffffffffffffffffffffffffffffffffffffffff1673ffffffffffffffffffffffffffffffffffffffff168152602001908152602001600020600084815260200190815260200160002060006101000a81548160ff0219169083151502179055503373ffffffffffffffffffffffffffffffffffffffff167f23ad0062ad47da0f27f5c07751751e4b60afc16bf6fe03a24266a01ec4897931836000604051611eb7929190613488565b60405180910390a260019050919050565b6000600160009054906101000a900473ffffffffffffffffffffffffffffffffffffffff1673ffffffffffffffffffffffffffffffffffffffff163373ffffffffffffffffffffffffffffffffffffffff1614611f5a576040517f08c379a0000000000000000000000000000000000000000000000000000000008152600401611f5190612e3e565b60405180910390fd5b600082118015611f6c57506003548211155b611fab576040517f08c379a0000000000000000000000000000000000000000000000000000000008152600401611fa290613510565b60405180910390fd5b611fb5838361202a565b508160036000828254611fc89190612c27565b925050819055503373ffffffffffffffffffffffffffffffffffffffff167f23ad0062ad47da0f27f5c07751751e4b60afc16bf6fe03a24266a01ec489793142600660405161201892919061357c565b60405180910390a26001905092915050565b6000808373ffffffffffffffffffffffffffffffffffffffff1683604051612051906135e9565b60006040518083038185875af1925050503d806000811461208e576040519150601f19603f3d011682016040523d82523d6000602084013e612093565b606091505b50509050806120d7576040517f08c379a00000000000000000000000000000000000000000000000000000000081526004016120ce9061364a565b60405180910390fd5b600191505092915050565b60405180610120016040528060008152602001606081526020016000815260200160008152602001600073ffffffffffffffffffffffffffffffffffffffff168152602001600073ffffffffffffffffffffffffffffffffffffffff1681526020016000600681111561215857612157612497565b5b81526020016000151581526020016000151581525090565b82805461217c90612dc0565b90600052602060002090601f01602090048101928261219e57600085556121e5565b82601f106121b757803560ff19168380011785556121e5565b828001600101855582156121e5579182015b828111156121e45782358255916020019190600101906121c9565b5b5090506121f29190612283565b5090565b82805461220290612dc0565b90600052602060002090601f0160209004810192826122245760008555612272565b82601f106122355780548555612272565b8280016001018555821561227257600052602060002091601f016020900482015b82811115612271578254825591600101919060010190612256565b5b50905061227f9190612283565b5090565b5b8082111561229c576000816000905550600101612284565b5090565b600080fd5b600080fd5b6000819050919050565b6122bd816122aa565b81146122c857600080fd5b50565b6000813590506122da816122b4565b92915050565b60008115159050919050565b6122f5816122e0565b811461230057600080fd5b50565b600081359050612312816122ec565b92915050565b6000806040838503121561232f5761232e6122a0565b5b600061233d858286016122cb565b925050602061234e85828601612303565b9150509250929050565b612361816122e0565b82525050565b600060208201905061237c6000830184612358565b92915050565b600081519050919050565b600082825260208201905092915050565b6000819050602082019050919050565b6123b7816122aa565b82525050565b600081519050919050565b600082825260208201905092915050565b60005b838110156123f75780820151818401526020810190506123dc565b83811115612406576000848401525b50505050565b6000601f19601f8301169050919050565b6000612428826123bd565b61243281856123c8565b93506124428185602086016123d9565b61244b8161240c565b840191505092915050565b600073ffffffffffffffffffffffffffffffffffffffff82169050919050565b600061248182612456565b9050919050565b61249181612476565b82525050565b7f4e487b7100000000000000000000000000000000000000000000000000000000600052602160045260246000fd5b600781106124d7576124d6612497565b5b50565b60008190506124e8826124c6565b919050565b60006124f8826124da565b9050919050565b612508816124ed565b82525050565b612517816122e0565b82525050565b60006101208301600083015161253660008601826123ae565b506020830151848203602086015261254e828261241d565b915050604083015161256360408601826123ae565b50606083015161257660608601826123ae565b5060808301516125896080860182612488565b5060a083015161259c60a0860182612488565b5060c08301516125af60c08601826124ff565b5060e08301516125c260e086018261250e565b506101008301516125d761010086018261250e565b508091505092915050565b60006125ee838361251d565b905092915050565b6000602082019050919050565b600061260e82612382565b612618818561238d565b93508360208202850161262a8561239e565b8060005b85811015612666578484038952815161264785826125e2565b9450612652836125f6565b925060208a0199505060018101905061262e565b50829750879550505050505092915050565b600060208201905081810360008301526126928184612603565b905092915050565b6000602082840312156126b0576126af6122a0565b5b60006126be848285016122cb565b91505092915050565b6126d0816122aa565b82525050565b60006020820190506126eb60008301846126c7565b92915050565b60006101208301600083015161270a60008601826123ae565b5060208301518482036020860152612722828261241d565b915050604083015161273760408601826123ae565b50606083015161274a60608601826123ae565b50608083015161275d6080860182612488565b5060a083015161277060a0860182612488565b5060c083015161278360c08601826124ff565b5060e083015161279660e086018261250e565b506101008301516127ab61010086018261250e565b508091505092915050565b600060208201905081810360008301526127d081846126f1565b905092915050565b600281106127e9576127e8612497565b5b50565b60008190506127fa826127d8565b919050565b600061280a826127ec565b9050919050565b61281a816127ff565b82525050565b60006020820190506128356000830184612811565b92915050565b600080fd5b600080fd5b600080fd5b60008083601f8401126128605761285f61283b565b5b8235905067ffffffffffffffff81111561287d5761287c612840565b5b60208301915083600182028301111561289957612898612845565b5b9250929050565b600080602083850312156128b7576128b66122a0565b5b600083013567ffffffffffffffff8111156128d5576128d46122a5565b5b6128e18582860161284a565b92509250509250929050565b6128f681612476565b82525050565b600060208201905061291160008301846128ed565b92915050565b61292081612476565b811461292b57600080fd5b50565b60008135905061293d81612917565b92915050565b6000806040838503121561295a576129596122a0565b5b60006129688582860161292e565b9250506020612979858286016122cb565b9150509250929050565b6000806040838503121561299a576129996122a0565b5b60006129a8858286016122cb565b92505060206129b98582860161292e565b9150509250929050565b600082825260208201905092915050565b7f4f6e6c79206f776e657220616c6c6f7765640000000000000000000000000000600082015250565b6000612a0a6012836129c3565b9150612a15826129d4565b602082019050919050565b60006020820190508181036000830152612a39816129fd565b9050919050565b7f53657276696365206e6f742070726f7669646564000000000000000000000000600082015250565b6000612a766014836129c3565b9150612a8182612a40565b602082019050919050565b60006020820190508181036000830152612aa581612a69565b9050919050565b7f416c726561647920726566756e6465642c206372656174652061206e6577204960008201527f74656d0000000000000000000000000000000000000000000000000000000000602082015250565b6000612b086023836129c3565b9150612b1382612aac565b604082019050919050565b60006020820190508181036000830152612b3781612afb565b9050919050565b7f4e487b7100000000000000000000000000000000000000000000000000000000600052601160045260246000fd5b6000612b78826122aa565b9150612b83836122aa565b9250817fffffffffffffffffffffffffffffffffffffffffffffffffffffffffffffffff0483118215151615612bbc57612bbb612b3e565b5b828202905092915050565b7f4e487b7100000000000000000000000000000000000000000000000000000000600052601260045260246000fd5b6000612c01826122aa565b9150612c0c836122aa565b925082612c1c57612c1b612bc7565b5b828204905092915050565b6000612c32826122aa565b9150612c3d836122aa565b925082821015612c5057612c4f612b3e565b5b828203905092915050565b6000612c66826122aa565b9150612c71836122aa565b9250827fffffffffffffffffffffffffffffffffffffffffffffffffffffffffffffffff03821115612ca657612ca5612b3e565b5b828201905092915050565b6000612cbc826122aa565b91507fffffffffffffffffffffffffffffffffffffffffffffffffffffffffffffffff821415612cef57612cee612b3e565b5b600182019050919050565b7f4449535055545445440000000000000000000000000000000000000000000000600082015250565b6000612d306009836129c3565b9150612d3b82612cfa565b602082019050919050565b612d4f816124ed565b82525050565b6000606082019050612d6a60008301856126c7565b8181036020830152612d7b81612d23565b9050612d8a6040830184612d46565b9392505050565b7f4e487b7100000000000000000000000000000000000000000000000000000000600052602260045260246000fd5b60006002820490506001821680612dd857607f821691505b60208210811415612dec57612deb612d91565b5b50919050565b7f4f6e6c7920457363726f7720616c6c6f77656400000000000000000000000000600082015250565b6000612e286013836129c3565b9150612e3382612df2565b602082019050919050565b60006020820190508181036000830152612e5781612e1b565b9050919050565b7f5365727669636520616c72656164792070726f76696465640000000000000000600082015250565b6000612e946018836129c3565b9150612e9f82612e5e565b602082019050919050565b60006020820190508181036000830152612ec381612e87565b9050919050565b7f524546554e444544000000000000000000000000000000000000000000000000600082015250565b6000612f006008836129c3565b9150612f0b82612eca565b602082019050919050565b6000606082019050612f2b60008301856126c7565b8181036020830152612f3c81612ef3565b9050612f4b6040830184612d46565b9392505050565b7f507572706f73652063616e6e6f7420626520656d707479000000000000000000600082015250565b6000612f886017836129c3565b9150612f9382612f52565b602082019050919050565b60006020820190508181036000830152612fb781612f7b565b9050919050565b7f4974656d2063616e6e6f74206265207a65726f20657468657273000000000000600082015250565b6000612ff4601a836129c3565b9150612fff82612fbe565b602082019050919050565b6000602082019050818103600083015261302381612fe7565b9050919050565b7f4954454d20435245415445440000000000000000000000000000000000000000600082015250565b6000613060600c836129c3565b915061306b8261302a565b602082019050919050565b600060608201905061308b60008301856126c7565b818103602083015261309c81613053565b90506130ab6040830184612d46565b9392505050565b7f4e487b7100000000000000000000000000000000000000000000000000000000600052604160045260246000fd5b7f4e487b7100000000000000000000000000000000000000000000000000000000600052603260045260246000fd5b7f53657276696365206e6f74206177617264656420746f20796f75000000000000600082015250565b6000613146601a836129c3565b915061315182613110565b602082019050919050565b6000602082019050818103600083015261317581613139565b9050919050565b7f5365727669636520616c726561647920636f6e6669726d656400000000000000600082015250565b60006131b26019836129c3565b91506131bd8261317c565b602082019050919050565b600060208201905081810360008301526131e1816131a5565b9050919050565b7f44454c495645525920494e544941544544000000000000000000000000000000600082015250565b600061321e6011836129c3565b9150613229826131e8565b602082019050919050565b600060608201905061324960008301856126c7565b818103602083015261325a81613211565b90506132696040830184612d46565b9392505050565b7f4974656d206e6f7420617661696c61626c650000000000000000000000000000600082015250565b60006132a66012836129c3565b91506132b182613270565b602082019050919050565b600060208201905081810360008301526132d581613299565b9050919050565b7f50726f7669646572206e6f74206f6e20746865206c6973740000000000000000600082015250565b60006133126018836129c3565b915061331d826132dc565b602082019050919050565b6000602082019050818103600083015261334181613305565b9050919050565b7f415050524f564544000000000000000000000000000000000000000000000000600082015250565b600061337e6008836129c3565b915061338982613348565b602082019050919050565b60006060820190506133a960008301856126c7565b81810360208301526133ba81613371565b90506133c96040830184612d46565b9392505050565b7f4f776e6572206e6f7420616c6c6f776564000000000000000000000000000000600082015250565b60006134066011836129c3565b9150613411826133d0565b602082019050919050565b60006020820190508181036000830152613435816133f9565b9050919050565b7f5245515545535445440000000000000000000000000000000000000000000000600082015250565b60006134726009836129c3565b915061347d8261343c565b602082019050919050565b600060608201905061349d60008301856126c7565b81810360208301526134ae81613465565b90506134bd6040830184612d46565b9392505050565b7f5a65726f207769746864726177616c206e6f7420616c6c6f7765640000000000600082015250565b60006134fa601b836129c3565b9150613505826134c4565b602082019050919050565b60006020820190508181036000830152613529816134ed565b9050919050565b7f5749544844524157454400000000000000000000000000000000000000000000600082015250565b6000613566600a836129c3565b915061357182613530565b602082019050919050565b600060608201905061359160008301856126c7565b81810360208301526135a281613559565b90506135b16040830184612d46565b9392505050565b600081905092915050565b50565b60006135d36000836135b8565b91506135de826135c3565b600082019050919050565b60006135f4826135c6565b9150819050919050565b7f5061796d656e74206661696c6564000000000000000000000000000000000000600082015250565b6000613634600e836129c3565b915061363f826135fe565b602082019050919050565b6000602082019050818103600083015261366381613627565b905091905056fea2646970667358221220809ae9f3330412bf6dd605aa48dfcf92ce38d422a981231b324e6d5a974bb4d664736f6c63430008080033a264697066735822122016cb578617a7b3c64313b73a5b9528687a082fb36ecd738ba6f164e3cabaa5db64736f6c63430008080033",
  "linkReferences": {},
  "deployedLinkReferences": {}
}