{
  "_format": "hh-sol-artifact-1",
  "contractName": "pvpEscrow",
  "sourceName": "contracts/pvpEscrow.sol",
  "abi": [
    {
      "inputs": [],
      "stateMutability": "nonpayable",
      "type": "constructor"
    },
    {
      "anonymous": false,
      "inputs": [
        {
          "indexed": true,
          "internalType": "uint256",
          "name": "gameId",
          "type": "uint256"
        },
        {
          "indexed": false,
          "internalType": "bytes32",
          "name": "actionType",
          "type": "bytes32"
        },
        {
          "indexed": false,
          "internalType": "enum pvpEscrow.Status",
          "name": "status",
          "type": "uint8"
        },
        {
          "indexed": true,
          "internalType": "address",
          "name": "executor",
          "type": "address"
        }
      ],
      "name": "Action",
      "type": "event"
    },
    {
      "inputs": [
        {
          "internalType": "address payable",
          "name": "_escrowWallet",
          "type": "address"
        },
        {
          "internalType": "uint256",
          "name": "amount",
          "type": "uint256"
        }
      ],
      "name": "createLobby",
      "outputs": [
        {
          "internalType": "bool",
          "name": "",
          "type": "bool"
        }
      ],
      "stateMutability": "payable",
      "type": "function"
    },
    {
      "inputs": [],
      "name": "damFee",
      "outputs": [
        {
          "internalType": "uint256",
          "name": "",
          "type": "uint256"
        }
      ],
      "stateMutability": "view",
      "type": "function"
    },
    {
      "inputs": [],
      "name": "daoFee",
      "outputs": [
        {
          "internalType": "uint256",
          "name": "",
          "type": "uint256"
        }
      ],
      "stateMutability": "view",
      "type": "function"
    },
    {
      "inputs": [
        {
          "internalType": "uint256",
          "name": "gameId",
          "type": "uint256"
        },
        {
          "internalType": "uint256",
          "name": "amount",
          "type": "uint256"
        }
      ],
      "name": "deposit",
      "outputs": [],
      "stateMutability": "payable",
      "type": "function"
    },
    {
      "inputs": [],
      "name": "devFee",
      "outputs": [
        {
          "internalType": "uint256",
          "name": "",
          "type": "uint256"
        }
      ],
      "stateMutability": "view",
      "type": "function"
    },
    {
      "inputs": [
        {
          "internalType": "uint256",
          "name": "",
          "type": "uint256"
        }
      ],
      "name": "games",
      "outputs": [
        {
          "internalType": "uint256",
          "name": "gameId",
          "type": "uint256"
        },
        {
          "internalType": "uint256",
          "name": "amount",
          "type": "uint256"
        },
        {
          "internalType": "uint256",
          "name": "timestamp",
          "type": "uint256"
        },
        {
          "internalType": "address",
          "name": "owner",
          "type": "address"
        },
        {
          "internalType": "address",
          "name": "provider",
          "type": "address"
        },
        {
          "internalType": "address",
          "name": "winner",
          "type": "address"
        },
        {
          "internalType": "address payable",
          "name": "escrowWallet",
          "type": "address"
        },
        {
          "internalType": "enum pvpEscrow.Status",
          "name": "status",
          "type": "uint8"
        }
      ],
      "stateMutability": "view",
      "type": "function"
    },
    {
      "inputs": [
        {
          "internalType": "address",
          "name": "",
          "type": "address"
        },
        {
          "internalType": "uint256",
          "name": "",
          "type": "uint256"
        }
      ],
      "name": "gamesOf",
      "outputs": [
        {
          "internalType": "uint256",
          "name": "gameId",
          "type": "uint256"
        },
        {
          "internalType": "uint256",
          "name": "amount",
          "type": "uint256"
        },
        {
          "internalType": "uint256",
          "name": "timestamp",
          "type": "uint256"
        },
        {
          "internalType": "address",
          "name": "owner",
          "type": "address"
        },
        {
          "internalType": "address",
          "name": "provider",
          "type": "address"
        },
        {
          "internalType": "address",
          "name": "winner",
          "type": "address"
        },
        {
          "internalType": "address payable",
          "name": "escrowWallet",
          "type": "address"
        },
        {
          "internalType": "enum pvpEscrow.Status",
          "name": "status",
          "type": "uint8"
        }
      ],
      "stateMutability": "view",
      "type": "function"
    },
    {
      "inputs": [
        {
          "internalType": "uint256",
          "name": "gameId",
          "type": "uint256"
        }
      ],
      "name": "getGameID",
      "outputs": [
        {
          "components": [
            {
              "internalType": "uint256",
              "name": "gameId",
              "type": "uint256"
            },
            {
              "internalType": "uint256",
              "name": "amount",
              "type": "uint256"
            },
            {
              "internalType": "uint256",
              "name": "timestamp",
              "type": "uint256"
            },
            {
              "internalType": "address",
              "name": "owner",
              "type": "address"
            },
            {
              "internalType": "address",
              "name": "provider",
              "type": "address"
            },
            {
              "internalType": "address",
              "name": "winner",
              "type": "address"
            },
            {
              "internalType": "address payable",
              "name": "escrowWallet",
              "type": "address"
            },
            {
              "internalType": "enum pvpEscrow.Status",
              "name": "status",
              "type": "uint8"
            }
          ],
          "internalType": "struct pvpEscrow.gameStruct",
          "name": "",
          "type": "tuple"
        }
      ],
      "stateMutability": "view",
      "type": "function"
    },
    {
      "inputs": [
        {
          "internalType": "uint256",
          "name": "",
          "type": "uint256"
        }
      ],
      "name": "ownerOf",
      "outputs": [
        {
          "internalType": "address",
          "name": "",
          "type": "address"
        }
      ],
      "stateMutability": "view",
      "type": "function"
    },
    {
      "inputs": [
        {
          "internalType": "uint256",
          "name": "gameId",
          "type": "uint256"
        }
      ],
      "name": "releaseFunds",
      "outputs": [],
      "stateMutability": "nonpayable",
      "type": "function"
    },
    {
      "inputs": [
        {
          "internalType": "uint256",
          "name": "gameId",
          "type": "uint256"
        },
        {
          "internalType": "address",
          "name": "winner",
          "type": "address"
        }
      ],
      "name": "setWinner",
      "outputs": [],
      "stateMutability": "nonpayable",
      "type": "function"
    },
    {
      "inputs": [],
      "name": "totalConfirmed",
      "outputs": [
        {
          "internalType": "uint256",
          "name": "",
          "type": "uint256"
        }
      ],
      "stateMutability": "view",
      "type": "function"
    },
    {
      "inputs": [],
      "name": "totalgames",
      "outputs": [
        {
          "internalType": "uint256",
          "name": "",
          "type": "uint256"
        }
      ],
      "stateMutability": "view",
      "type": "function"
    }
  ],
  "bytecode": "0x60806040526000600455600060055534801561001a57600080fd5b506001600081905550600560018190555060036002819055506002600381905550611d528061004a6000396000f3fe6080604052600436106100c25760003560e01c80635c017eb21161007f5780639c623683116100595780639c6236831461029e578063a7910271146102c7578063e2bbb158146102f7578063ea94451014610313576100c2565b80635c017eb2146101f25780636352211e146102365780636827e76414610273576100c2565b8063117a5b90146100c75780632957b8391461010b5780632b70272b146101365780633464e6cb146101735780634028a0f11461019e5780634d68282f146101c9575b600080fd5b3480156100d357600080fd5b506100ee60048036038101906100e991906112b2565b61033e565b6040516101029897969594939291906113c7565b60405180910390f35b34801561011757600080fd5b50610120610413565b60405161012d9190611445565b60405180910390f35b34801561014257600080fd5b5061015d600480360381019061015891906112b2565b610419565b60405161016a919061153e565b60405180910390f35b34801561017f57600080fd5b506101886105f8565b6040516101959190611445565b60405180910390f35b3480156101aa57600080fd5b506101b36105fe565b6040516101c09190611445565b60405180910390f35b3480156101d557600080fd5b506101f060048036038101906101eb91906112b2565b610604565b005b3480156101fe57600080fd5b5061021960048036038101906102149190611586565b61086e565b60405161022d9897969594939291906113c7565b60405180910390f35b34801561024257600080fd5b5061025d600480360381019061025891906112b2565b610960565b60405161026a91906115c6565b60405180910390f35b34801561027f57600080fd5b50610288610993565b6040516102959190611445565b60405180910390f35b3480156102aa57600080fd5b506102c560048036038101906102c091906115e1565b610999565b005b6102e160048036038101906102dc919061164d565b610c1b565b6040516102ee91906116a8565b60405180910390f35b610311600480360381019061030c91906116c3565b611075565b005b34801561031f57600080fd5b506103286111c2565b6040516103359190611445565b60405180910390f35b60066020528060005260406000206000915090508060000154908060010154908060020154908060030160009054906101000a900473ffffffffffffffffffffffffffffffffffffffff16908060040160009054906101000a900473ffffffffffffffffffffffffffffffffffffffff16908060050160009054906101000a900473ffffffffffffffffffffffffffffffffffffffff16908060060160009054906101000a900473ffffffffffffffffffffffffffffffffffffffff16908060060160149054906101000a900460ff16905088565b60035481565b6104216111c8565b60066000838152602001908152602001600020604051806101000160405290816000820154815260200160018201548152602001600282015481526020016003820160009054906101000a900473ffffffffffffffffffffffffffffffffffffffff1673ffffffffffffffffffffffffffffffffffffffff1673ffffffffffffffffffffffffffffffffffffffff1681526020016004820160009054906101000a900473ffffffffffffffffffffffffffffffffffffffff1673ffffffffffffffffffffffffffffffffffffffff1673ffffffffffffffffffffffffffffffffffffffff1681526020016005820160009054906101000a900473ffffffffffffffffffffffffffffffffffffffff1673ffffffffffffffffffffffffffffffffffffffff1673ffffffffffffffffffffffffffffffffffffffff1681526020016006820160009054906101000a900473ffffffffffffffffffffffffffffffffffffffff1673ffffffffffffffffffffffffffffffffffffffff1673ffffffffffffffffffffffffffffffffffffffff1681526020016006820160149054906101000a900460ff1660048111156105db576105da611350565b5b60048111156105ed576105ec611350565b5b815250509050919050565b60015481565b60055481565b6006600082815260200190815260200160002060030160009054906101000a900473ffffffffffffffffffffffffffffffffffffffff1673ffffffffffffffffffffffffffffffffffffffff163373ffffffffffffffffffffffffffffffffffffffff16146106a8576040517f08c379a000000000000000000000000000000000000000000000000000000000815260040161069f90611786565b60405180910390fd5b600360048111156106bc576106bb611350565b5b6006600083815260200190815260200160002060060160149054906101000a900460ff1660048111156106f2576106f1611350565b5b14610732576040517f08c379a0000000000000000000000000000000000000000000000000000000008152600401610729906117f2565b60405180910390fd5b600073ffffffffffffffffffffffffffffffffffffffff166006600083815260200190815260200160002060050160009054906101000a900473ffffffffffffffffffffffffffffffffffffffff1673ffffffffffffffffffffffffffffffffffffffff1614156107d8576040517f08c379a00000000000000000000000000000000000000000000000000000000081526004016107cf90611884565b60405180910390fd5b6006600082815260200190815260200160002060060160009054906101000a900473ffffffffffffffffffffffffffffffffffffffff1673ffffffffffffffffffffffffffffffffffffffff166108fc60066000848152602001908152602001600020600101549081150290604051600060405180830381858888f1935050505015801561086a573d6000803e3d6000fd5b5050565b6007602052816000526040600020818154811061088a57600080fd5b9060005260206000209060070201600091509150508060000154908060010154908060020154908060030160009054906101000a900473ffffffffffffffffffffffffffffffffffffffff16908060040160009054906101000a900473ffffffffffffffffffffffffffffffffffffffff16908060050160009054906101000a900473ffffffffffffffffffffffffffffffffffffffff16908060060160009054906101000a900473ffffffffffffffffffffffffffffffffffffffff16908060060160149054906101000a900460ff16905088565b60086020528060005260406000206000915054906101000a900473ffffffffffffffffffffffffffffffffffffffff1681565b60025481565b600360048111156109ad576109ac611350565b5b6006600084815260200190815260200160002060060160149054906101000a900460ff1660048111156109e3576109e2611350565b5b14158015610a3857506004808111156109ff576109fe611350565b5b6006600084815260200190815260200160002060060160149054906101000a900460ff166004811115610a3557610a34611350565b5b14155b610a77576040517f08c379a0000000000000000000000000000000000000000000000000000000008152600401610a6e90611916565b60405180910390fd5b6006600083815260200190815260200160002060030160009054906101000a900473ffffffffffffffffffffffffffffffffffffffff1673ffffffffffffffffffffffffffffffffffffffff163373ffffffffffffffffffffffffffffffffffffffff1614610b1b576040517f08c379a0000000000000000000000000000000000000000000000000000000008152600401610b1290611786565b60405180910390fd5b806006600084815260200190815260200160002060050160006101000a81548173ffffffffffffffffffffffffffffffffffffffff021916908373ffffffffffffffffffffffffffffffffffffffff16021790555060036006600084815260200190815260200160002060060160146101000a81548160ff02191690836004811115610baa57610ba9611350565b5b021790555060056000815480929190610bc290611965565b91905055503373ffffffffffffffffffffffffffffffffffffffff16827f996b205b08aeaa0a5305b50d2242efbe20923f9ff6878bae0507d385e16593c46003604051610c0f91906119d4565b60405180910390a35050565b600081341015610c60576040517f08c379a0000000000000000000000000000000000000000000000000000000008152600401610c5790611a6d565b60405180910390fd5b600a60015411158015610c7557506001805410155b610cb4576040517f08c379a0000000000000000000000000000000000000000000000000000000008152600401610cab90611ad9565b60405180910390fd5b600a60025411158015610cca5750600160025410155b610d09576040517f08c379a0000000000000000000000000000000000000000000000000000000008152600401610d0090611b45565b60405180910390fd5b600a60035411158015610d1f5750600160035410155b610d5e576040517f08c379a0000000000000000000000000000000000000000000000000000000008152600401610d5590611bb1565b60405180910390fd5b610d666111c8565b60046000815480929190610d7990611965565b91905055816000018181525050828160200181815250504281604001818152505033816060019073ffffffffffffffffffffffffffffffffffffffff16908173ffffffffffffffffffffffffffffffffffffffff1681525050838160c0019073ffffffffffffffffffffffffffffffffffffffff16908173ffffffffffffffffffffffffffffffffffffffff168152505060008160e001906004811115610e2357610e22611350565b5b90816004811115610e3757610e36611350565b5b8152505080600660008360000151815260200190815260200160002060008201518160000155602082015181600101556040820151816002015560608201518160030160006101000a81548173ffffffffffffffffffffffffffffffffffffffff021916908373ffffffffffffffffffffffffffffffffffffffff16021790555060808201518160040160006101000a81548173ffffffffffffffffffffffffffffffffffffffff021916908373ffffffffffffffffffffffffffffffffffffffff16021790555060a08201518160050160006101000a81548173ffffffffffffffffffffffffffffffffffffffff021916908373ffffffffffffffffffffffffffffffffffffffff16021790555060c08201518160060160006101000a81548173ffffffffffffffffffffffffffffffffffffffff021916908373ffffffffffffffffffffffffffffffffffffffff16021790555060e08201518160060160146101000a81548160ff02191690836004811115610fb857610fb7611350565b5b021790555090505033600860008360000151815260200190815260200160002060006101000a81548173ffffffffffffffffffffffffffffffffffffffff021916908373ffffffffffffffffffffffffffffffffffffffff1602179055503373ffffffffffffffffffffffffffffffffffffffff1681600001517f996b205b08aeaa0a5305b50d2242efbe20923f9ff6878bae0507d385e16593c460006040516110629190611bf7565b60405180910390a3600191505092915050565b6000600481111561108957611088611350565b5b6006600084815260200190815260200160002060060160149054906101000a900460ff1660048111156110bf576110be611350565b5b146110ff576040517f08c379a00000000000000000000000000000000000000000000000000000000081526004016110f690611c6a565b60405180910390fd5b803414611141576040517f08c379a000000000000000000000000000000000000000000000000000000000815260040161113890611cfc565b60405180910390fd5b6006600083815260200190815260200160002060060160009054906101000a900473ffffffffffffffffffffffffffffffffffffffff1673ffffffffffffffffffffffffffffffffffffffff166108fc829081150290604051600060405180830381858888f193505050501580156111bd573d6000803e3d6000fd5b505050565b60045481565b604051806101000160405280600081526020016000815260200160008152602001600073ffffffffffffffffffffffffffffffffffffffff168152602001600073ffffffffffffffffffffffffffffffffffffffff168152602001600073ffffffffffffffffffffffffffffffffffffffff168152602001600073ffffffffffffffffffffffffffffffffffffffff1681526020016000600481111561127157611270611350565b5b81525090565b600080fd5b6000819050919050565b61128f8161127c565b811461129a57600080fd5b50565b6000813590506112ac81611286565b92915050565b6000602082840312156112c8576112c7611277565b5b60006112d68482850161129d565b91505092915050565b6112e88161127c565b82525050565b600073ffffffffffffffffffffffffffffffffffffffff82169050919050565b6000611319826112ee565b9050919050565b6113298161130e565b82525050565b600061133a826112ee565b9050919050565b61134a8161132f565b82525050565b7f4e487b7100000000000000000000000000000000000000000000000000000000600052602160045260246000fd5b600581106113905761138f611350565b5b50565b60008190506113a18261137f565b919050565b60006113b182611393565b9050919050565b6113c1816113a6565b82525050565b6000610100820190506113dd600083018b6112df565b6113ea602083018a6112df565b6113f760408301896112df565b6114046060830188611320565b6114116080830187611320565b61141e60a0830186611320565b61142b60c0830185611341565b61143860e08301846113b8565b9998505050505050505050565b600060208201905061145a60008301846112df565b92915050565b6114698161127c565b82525050565b6114788161130e565b82525050565b6114878161132f565b82525050565b611496816113a6565b82525050565b610100820160008201516114b36000850182611460565b5060208201516114c66020850182611460565b5060408201516114d96040850182611460565b5060608201516114ec606085018261146f565b5060808201516114ff608085018261146f565b5060a082015161151260a085018261146f565b5060c082015161152560c085018261147e565b5060e082015161153860e085018261148d565b50505050565b600061010082019050611554600083018461149c565b92915050565b6115638161130e565b811461156e57600080fd5b50565b6000813590506115808161155a565b92915050565b6000806040838503121561159d5761159c611277565b5b60006115ab85828601611571565b92505060206115bc8582860161129d565b9150509250929050565b60006020820190506115db6000830184611320565b92915050565b600080604083850312156115f8576115f7611277565b5b60006116068582860161129d565b925050602061161785828601611571565b9150509250929050565b61162a8161132f565b811461163557600080fd5b50565b60008135905061164781611621565b92915050565b6000806040838503121561166457611663611277565b5b600061167285828601611638565b92505060206116838582860161129d565b9150509250929050565b60008115159050919050565b6116a28161168d565b82525050565b60006020820190506116bd6000830184611699565b92915050565b600080604083850312156116da576116d9611277565b5b60006116e88582860161129d565b92505060206116f98582860161129d565b9150509250929050565b600082825260208201905092915050565b7f596f7520617265206e6f7420746865206f776e6572206f66207468652067616d60008201527f6500000000000000000000000000000000000000000000000000000000000000602082015250565b6000611770602183611703565b915061177b82611714565b604082019050919050565b6000602082019050818103600083015261179f81611763565b9050919050565b7f47616d65206973206e6f7420636f6e6669726d65642079657400000000000000600082015250565b60006117dc601983611703565b91506117e7826117a6565b602082019050919050565b6000602082019050818103600083015261180b816117cf565b9050919050565b7f4e6f2077696e6e657220686173206265656e2073657420666f7220746869732060008201527f67616d6500000000000000000000000000000000000000000000000000000000602082015250565b600061186e602483611703565b915061187982611812565b604082019050919050565b6000602082019050818103600083015261189d81611861565b9050919050565b7f47616d6520616c726561647920636f6e6669726d6564206f722064697370757460008201527f6564000000000000000000000000000000000000000000000000000000000000602082015250565b6000611900602283611703565b915061190b826118a4565b604082019050919050565b6000602082019050818103600083015261192f816118f3565b9050919050565b7f4e487b7100000000000000000000000000000000000000000000000000000000600052601160045260246000fd5b60006119708261127c565b91507fffffffffffffffffffffffffffffffffffffffffffffffffffffffffffffffff8214156119a3576119a2611936565b5b600182019050919050565b7f57696e6e65722073657400000000000000000000000000000000000000000000815250565b60006040820190506119e8600083016119ae565b6119f560208301846113b8565b92915050565b7f67616d6520616d6f756e74206973206c657373207468616e207265717569726560008201527f6400000000000000000000000000000000000000000000000000000000000000602082015250565b6000611a57602183611703565b9150611a62826119fb565b604082019050919050565b60006020820190508181036000830152611a8681611a4a565b9050919050565b7f496e76616c69642064616d4665652076616c7565000000000000000000000000600082015250565b6000611ac3601483611703565b9150611ace82611a8d565b602082019050919050565b60006020820190508181036000830152611af281611ab6565b9050919050565b7f496e76616c6964206465764665652076616c7565000000000000000000000000600082015250565b6000611b2f601483611703565b9150611b3a82611af9565b602082019050919050565b60006020820190508181036000830152611b5e81611b22565b9050919050565b7f496e76616c69642064616f4665652076616c7565000000000000000000000000600082015250565b6000611b9b601483611703565b9150611ba682611b65565b602082019050919050565b60006020820190508181036000830152611bca81611b8e565b9050919050565b7f67616d6520435245415445440000000000000000000000000000000000000000815250565b6000604082019050611c0b60008301611bd1565b611c1860208301846113b8565b92915050565b7f47616d65206973206e6f7420696e204f50454e20737461747573000000000000600082015250565b6000611c54601a83611703565b9150611c5f82611c1e565b602082019050919050565b60006020820190508181036000830152611c8381611c47565b9050919050565b7f4465706f73697420616d6f756e7420646f6573206e6f74206d6174636820737060008201527f6563696669656420616d6f756e74000000000000000000000000000000000000602082015250565b6000611ce6602e83611703565b9150611cf182611c8a565b604082019050919050565b60006020820190508181036000830152611d1581611cd9565b905091905056fea2646970667358221220e24d998af47927e6418d5c8be8f08635461c7b670a94e0d141230b88193b513a64736f6c63430008080033",
  "linkReferences": {},
  "deployedLinkReferences": {}
}